:100D7100759DFFE4F5BDE5194488F5BC7F027E0051
:040D8100120C4622E8
:0C0DC4008F4974112FF8E6FF120DD022A9
:100C1A00E5194488F5BC00000000E5BC30E4FB534C
:100C2A00BCEF74112519F8A6BD0519E519D3940767
:0C0C3A004003E4F519E5194488F5BC22DC
:100D2E008F23E52344C8F5BC00000000E5BC30E489
:070D3E00FB53BCEFAFBD2227
:100AFD00E4F523F51AF523E523C394085036E523D1
:100B0D0090000393FF74112523F8E6C39F4011AFA6
:100B1D00237401A807088002C333D8FC421A801041
:100B2D00AF237401A807088002C333D8FCF4521A0E
:040B3D00052380C349
:010B41002291
:060CBB00014500014600A6
:040E2B0075460122E5
:040E2F0075450122E2
:040E3300E4F545227B
:0A0DFC00E4F546120D85120CDD220D
:100BEC00E4F523F524F524E524C39408501D740181
:100BFC007E00A824088005C333CE33CED8F9FFE499
:0D0C0C00EF551A60020523052480DCAF239C
:010C190022B8
:10036A00E54664016003020631120E43E51A1206DD
:10037A009D03DF0005490405F707050D08052B0A4B
:10038A0004770E05DB0F04B31204D118043B1C04D6
:10039A00031E05672004EF3004593803E53C049531
:1003AA007004217805BFC00613C305A3E00585F0D4
:1003BA0003C1FF0000062DE545600D7F32120A13C6
:1003CA007F32120A6402062D7F64120A137F6412B6
:1003DA000A6402062D120D8502062DE545600D7F81
:1003EA0032120A137F32120A6402062D7F64120A3D
:1003FA00137F64120A6402062DE545600D7F3212EE
:10040A000A137F19120A6402062D7F64120A137FE7
:10041A0032120A6402062DE545600C7F19120A138E
:10042A007F32120A64800A7F32120A137F64120A28
:10043A0064E545600D7F32120A137F28120A6402AE
:10044A00062D7F64120A137F50120A6402062DE5F4
:10045A0045600D7F28120A137F32120A6402062DA4
:10046A007F50120A137F64120A6402062DE5456062
:10047A000D7F32120A137F14120A6402062D7F645A
:10048A00120A137F28120A6402062DE545600D7FC1
:10049A0014120A137F32120A6402062D7F28120AE6
:1004AA00137F64120A6402062DE545600D7F32123D
:1004BA000A137F32120A6402062D7F64120A137F1E
:1004CA0064120A6402062DE545600D7F32120A1392
:1004DA007F1E120A6402062D7F64120A137F3C12E1
:1004EA000A6402062DE545600D7F1E120A137F324B
:1004FA00120A6402062D7F3C120A137F64120A64F0
:10050A0002062DE545600D7F32120A137F28120A72
:10051A006402062D7F64120A137F50120A640206CF
:10052A002DE545600D7F28120A137F32120A6402F4
:10053A00062D7F50120A137F64120A6402062DE503
:10054A0045600D7F32120A137F1E120A6402062DBD
:10055A007F64120A137F3C120A6402062DE5456085
:10056A000D7F1E120A137F32120A6402062D7F3C87
:10057A00120A137F64120A6402062DE545600D7F94
:10058A00E7120A137F32120A6402062D7FCE120A7C
:10059A00137F64120A6402062DE545600C7FDB12A4
:1005AA000A137F32120A64807A7FB5120A137F64B3
:1005BA00120A64806EE545600C7FCE120A137F3200
:1005CA00120A64805E7F9C120A137F64120A648096
:1005DA0052E545600C7F32120A137FE7120A6480E3
:1005EA00427F64120A137FCE120A648036E54560A0
:1005FA000C7F32120A137FDB120A6480267F641290
:10060A000A137FB5120A64801AE545600C7F32121C
:10061A000A137FCE120A64800A7F64120A137F9C2F
:0B062A00120A64120CDD22120E4622A0
:08000300E0E0E0E0E0E0E0E0F5
:030CC10001190016
:100D4500E4F594F593F592F591F596F595F5B2F5EB
:060D5500B1F5B4F5B32274
:040C46008E398F3A1A
:100C4A00E53A153AAE39700215394E6017753B13FD
:100C5A00753C88E53C153CAE3B7002153B4E60E0A6
:040C6A0080F180DCB9
:010C6E002263
:050E2600D2A9D2AF22A9
:03000B000209C126
:0D09C100C0E0C0F0C083C082C0D075D0007F
:1009CE00752200752200E522C394085010AF221242
:1009DE000D2E74112522F8A607052280E9120AFDB4
:1009EE001207E0120AB5120E06EF6008120E401240
:0A09FE00036A8003120E3D120D5B28
:0B0A0800D0D0D082D083D0F0D0E032FC
:100CFA00120D45120E19120D14120E267F14120D22
:0A0D0A00DB120DA9120D7180FE220C
:060E20004C3A25640A00B3
:020A13008F232F
:100A15007BFF7A0E7920EF3395E0F5288F291200B8
:100A250070C3E52364809480501AC2A4D2A5C3E59F
:100A3500236480941C5005752464801DE523F4040B
:100A4500F5248015D3E523648094E440057524647A
:0E0A55008003852324D2A4C2A5AF24120B86F1
:010A63002270
:020A64008F23DE
:100A66007BFF7A0E7920EF3395E0F5288F29120067
:100A760070C3E52364809480501AC2A2D2A3C3E552
:100A8600236480941C5005752464801DE523F404BA
:100A9600F5248015D3E523648094E4400575246429
:0E0AA6008003852324D2A2C2A3AF24120BB971
:010AB400221F
:100D8500E4FF120BB9E4FF120B86C2A4C2A5C2A2EE
:030D9500C2A322D4
:070CC400011F00021D0000EA
:0D0DB700120D85751D00751E0A751F0122A5
:0A0E0600E51F70037F01227F002228
:100AB500E51F12069D0AC4010AF00200000AFCD3D4
:100AC500E51E9400E51D94004009E51E151E700203
:100AD500151D2230B20320B30E7FD8120A137FD81A
:100AE500120A64751F0222E4F51F2230B20930B3E1
:080AF50006120D85E4F51F2235
:100B86008F2543BA8090FF40E4F0A3F0AF25FCFD2B
:100B9600FE7BE47A04F9F812064EE47B64FAF9F86F
:100BA600120B4290FF42EEF0A3EFF0A37408F0534D
:030BB600BA7F22E1
:100BB9008F2543BA8090FF50E4F0A3F0AF25FCFDE8
:100BC900FE7BE47A04F9F812064EE47B64FAF9F83C
:100BD900120B4290FF52EEF0A3EFF0A37408F0530A
:030BE900BA7F22AE
:100CDD0043BA80E4F5F190FFF2740CF090FFF074DC
:0D0CED0004F0A374E4F075F5B053BA7F2253
:0E0DA900538E7F758C07758A9AC28DD28C226C
:100D1400759850438E40538EDF538EFEE4F58975EB
:0A0D24008BB8758DFFD28ED2992294
:0B0DD0008F4A2009FDD209854A9922B4
:090E10002009FDD20985991B227D
:100C96008B428A438944AB42AA43A9441206356073
:100CA600130544E5447002054314F9120635FF1294
:050CB6000DD080E222D8
:040CCB0002470000DC
:070E19004393014394012201
:030E3700C2802254
:030E3A00D2802241
:0B0DDB008F397547008F48120E372239
:100D5B00E5484547600C120E37E5481548700215FB
:060D6B004722120E3A229D
:0D0CCF00014100023F0000013E00013D0018
:0B0DE6008E238F2485233F85244022AC
:100D9800D3E5409400E53F940040037F01227F00A3
:010DA8002228
:1007E000D3E5409400E53F94004008E54015407093
:1007F00002153FE54112069D0817000837010881E0
:100800000208910308C60408F10508FE060934072A
:1008100009340800000934120BECEFC394074013AD
:10082000120E2B7F14120DDB7FC87E00120DE675B1
:10083000410122120DFC22120D98EF7040E53E702E
:1008400014120BECEFC39405400B753E017F14129C
:100850000DDBE4F53DE53D600302093420B20302FF
:10086000093420B303020934753D01120E2F7F14A1
:10087000120DDB120DFC120DB775410222E4F53E9C
:1008800022120E06EF7003020934754103E4F53EAF
:1008900022E53E700E7FC8FE120DE67F14120DDBBE
:1008A000753E01120D98EF6003020934120E2B30D1
:1008B000B20302093420B37C7F0A7E00120DE67574
:1008C0004104E4F53E22120D98EF701FE53E70647E
:1008D00030B26130B35E753E017F14120DDB120D34
:1008E000FC120DB7754105E4F53E22E4F53EF53DF9
:1008F00022120E06EF603D754106E4F53E22E53E0C
:10090000700E7FC8FE120DE67F14120DDB753E01DE
:10091000120D98EF701E120E33120E2B20B21520FE
:10092000B3127F14120DDB7F3C7E00120DE6754181
:0509300007E4F53E2282
:0B0DF100C2C2C2C0C2CAC2C9C2C8222E
:030E3D00D2C222FC
:030E4000C2C22209
:030E4300D2C022F8
:030E4600C2C02205
:03000000020935BD
:0C093500787FE4F6D8FD75814A02097C49
:10063500BB010689828A83E0225002E722BBFE02C3
:09064500E32289828A83E49322F6
:10064E00E88FF0A4CC8BF0A42CFCE98EF0A42CFC4B
:10065E008AF0EDA42CFCEA8EF0A4CDA8F08BF0A4C9
:10066E002DCC3825F0FDE98FF0A42CCD35F0FCEB28
:10067E008EF0A4FEA9F0EB8FF0A4CFC5F02ECD39ED
:0F068E00FEE43CFCEAA42DCE35F0FDE43CFC225A
:100B4200C2D5E830E70FB2D5E4C39BFBE49AFAE4DE
:100B520099F9E498F8EC30E717B2D5120B7812073E
:100B62003EE4C39BFBE49AFAE499F9E498F8800323
:100B720012073E30D50DE4C39FFFE49EFEE49DFDC7
:040B8200E49CFC22D1
:10069D00D083D082F8E4937012740193700DA3A3EC
:1006AD0093F8740193F5828883E473740293686000
:0606BD00EFA3A3A380DF00
:10000E00E5342428F8E605342278253007027828CE
:10001E00E475F0011207D00206352000EB7F2ED2D8
:10002E00008018EF540F2490D43440D4FF30040BCA
:10003E00EF24BFB41A0050032461FFE535600215AA
:10004E00350538E5387002053730070D7825E4752B
:10005E00F0011207D0EF0206F0020C6F7403D20704
:10006E008003E4C207F5348B258A268927E4F5350B
:10007E00F537F538E53560077F2012004980F575B4
:10008E0036FFC201C200C202C203C205C206C208C6
:10009E00120017FF700D3007057F0012005AAF389F
:1000AE00AE3722B4255FC2D5C204120017FF24D08A
:1000BE00B40A00501A75F00A783530D50508B6FF27
:1000CE000106C6A426F620D5047002D20380D924D8
:1000DE00CFB41A00EF5004C2E5D20402025AD20184
:1000EE0080C6D20080C0D20280BCD2D580BAD205E2
:1000FE0080B47F201200492002077401B5350040FC
:10010E00F112000EFF120049020082D208D20680C0
:10011E009512000EFB12000EFA12000EF94A4B70E9
:10012E0006792B7A037BFF20022EE535602A7E00AE
:10013E008E827583001206C360060EEE653670F071
:10014E00C2D5EBC0E0EAC0E0E9C0E0EE1202A1D0F9
:10015E00E0F9D0E0FAD0E0FB120635FF60AAEBC062
:10016E00E0EAC0E0E9C0E0120049D0E02401F9D095
:10017E00E03400FAD0E0FBE5360460DCD536D980F9
:10018E00877BFF7A02799DD202809C79108002795A
:10019E0008C206C2088008D2D5790A8004790AC23C
:1001AE00D5E536047002F536E4FAFDFEFF12000EB8
:1001BE00FC7B0820011312000EFD7B1030000A128A
:1001CE00000EFE12000EFF7B20EC3382D592D5502E
:1001DE0013C3E43000069FFFE49EFEE42001039D5E
:1001EE00FDE49CFCE4CBF8C201EC700CCFCECDCC80
:1001FE00E824F8F870F38017C3EF33FFEE33FEED0B
:10020E0033FDEC33FCEB33FB994002FB0FD8E9EBEB
:10021E00300105F8D0E0C448B201C0E00AEC4D4E02
:10022E004F78207B0070C2EAB5360040BCC0E012A9
:10023E0002A3D0F0D0E0200104C4C0E0C4B201C0DB
:10024E00F0120032D0F0D5F0EB02008212069D01C2
:10025E001F5301995800F04C00EC42019D4F01A52F
:0F026E004401A54901054301AB55018F46018F9E
:10027D0045018F47034B5000F42D00F82E011B2B29
:10028D0000FC2301192003342A00B4480000011397
:10029D003F3F3F00790AA2D5200314300509B9105C
:1002AD00020404B9080104A2D5200602500104205D
:1002BD0002689202B535005034C0E07F203003193A
:1002CD007F30A20272067205500F1202FAC202C2EC
:1002DD0006C205C2087F30800F300503E9C0E01269
:1002ED000049300503D0E0F9D0E0B535CC30051725
:1002FD007F30B9100C1200497F583004077F788089
:10030D0003B908031200493002057F2D0200497F11
:10031D00202008F87F2B2006F322920280CF286E32
:10032D00756C6C2900D20112000E3001F8C20178F3
:10033D003530D50108F60200B42D5043495812004E
:10034D000E2403B405004001E49003469312003AD5
:0D035D00743A12003AD2037535040201997A
:10094100020CFAE493A3F8E493A34003F68001F2C6
:1009510008DFF48029E493A3F85407240CC8C333B7
:10096100C4540F4420C8834004F456800146F6DF86
:10097100E4800B0102040810204080900CBBE47E4F
:10098100019360BCA3FF543F30E509541FFEE4937B
:10099100A360010ECF54C025E060A840B8E493A342
:1009A100FAE493A3F8E493A3C8C582C8CAC583CA6D
:1009B100F0A3C8C582C8CAC583CADFE9DEE780BE25
:010CDC000017
:1006C300BB010CE58229F582E5833AF583E02250EC
:1006D30006E92582F8E622BBFE06E92582F8E22236
:0D06E300E58229F582E5833AF583E4932250
:1006F000BB010689828A83F0225002F722BBFE01E9
:02070000F322E2
:1007020075F008758200EF2FFFEE33FECD33CDCCAE
:1007120033CCC58233C5829BED9AEC99E582984031
:100722000CF582EE9BFEED9AFDEC99FC0FD5F0D60E
:10073200E4CEFBE4CDFAE4CCF9A88222B800C1B938
:100742000059BA002DEC8BF084CFCECDFCE5F0CB76
:10075200F97818EF2FFFEE33FEED33FDEC33FCEBAF
:1007620033FB10D703994004EB99FB0FD8E5E4F96A
:10077200FA227818EF2FFFEE33FEED33FDEC33FC57
:10078200C933C910D7059BE99A4007EC9BFCE99A4B
:10079200F90FD8E0E4C9FAE4CCFB2275F010EF2F90
:1007A200FFEE33FEED33FDCC33CCC833C810D70790
:1007B2009BEC9AE899400AED9BFDEC9AFCE899F8CB
:0E07C2000FD5F0DAE4CDFBE4CCFAE4C8F9225E
:1007D000FAE6FB0808E6F925F0F618E6CA3AF6222A
:100C6F00EFB40A07740D120C7A740A309811A89910
:100C7F00B8130CC2983098FDA899C298B811F630E5
:070C8F0099FDC299F59922BD
:00000001FF
