:100D9400759DFFE4F5BDE51A4488F5BC7F027E002D
:030DA400020D013C
:090DD70074122FF8E6FF020DFA78
:100C0300E51A4488F5BC00000000E5BC30E4FB5362
:100C1300BCEF7412251AF8A6BD051AD3E51A94077A
:100C2300748094804003E4F51AE51A4488F5BC22E5
:100BC500E4FFF51BEFC3940874809480502FEF90D9
:100BD5000DF293FE74122FF8E6C39E400FA807741A
:100BE50001088002C333D8FC421B800EA80774019C
:0D0BF500088002C333D8FCF4521B0F80C7E8
:010C020022CF
:10095C00E51B12086809A7000A3B040A89070A214B
:10096C00080A2E0A09DB0E0A7C0F09F7120A051871
:10097C0009D71C09BB1E0A48200A133009D93809AB
:10098C00AD3C09E97009C9780A6FC00A96C30A62BE
:10099C00E00A55F009F7FF00000AA4120DE0020A64
:1009AC00A47D017F64120D1C7D017F64120D377DC7
:1009BC00017F64120D1C7D017F32120D377D017F8A
:1009CC0032120D1C7D017F64120D37804880537DDF
:1009DC00017F64120D1C7D017F28020AA17D017F1D
:1009EC0028120D1C7D017F64020AA17D017F641217
:1009FC000D1C7D017F64020AA17D017F64120D1C18
:100A0C007D017F3C020AA17D017F3C120D1C7D0102
:100A1C007F64020AA17D017F64120D1C7D017F5051
:100A2C0080737D017F50120D1C7D017F6480667D7B
:100A3C00017F64120D1C7D017F3C80597D017F3C40
:100A4C00120D1C7D017F64804CE4FD7F32120D1C65
:100A5C007D017F64803FE4FD7F4B120D1C7D017F87
:100A6C00648032E4FD7F64120D1C7D017F6480255F
:100A7C007D017F64120D1CE4FD7F3280187D017FA7
:100A8C0064120D1CE4FD7F4B800B7D017F64120D05
:0B0A9C001CE4FD7F64120D37020CE427
:080DF200E0E0E0E0E0E0E0E0F9
:060E0200011A00010900C5
:100D6A00E4F594F593F592F591F596F595F5B2F5C6
:060D7A00B1F5B4F5B3224F
:100D0100EF1FAA0670011E4A60107C137D88ED1D3D
:0A0D1100AA0470011C4A60E880F497
:010D1B0022B5
:0B0DC200D2A9D2A8C288D2ACD2AF22C6
:03000B00020B33B2
:100B3300C0E0C0F0C083C082C0D075D000C28CE5D5
:100B43000964017026F509120C917FE87E03120DEA
:100B5300017D017F32120D1C7D017F32120D371290
:100B63000CE47F147E00120D018006120BC51209DE
:0E0B73005CD28CD0D0D082D083D0F0D0E032D3
:03000300020DCD1E
:0A0DCD0030B20630B303750901329D
:03002300020DB516
:0D0DB500309802C298309904C299C20032F1
:100D8000120D6A120D52120DC2120DA7120D9412FD
:040D90000C0380FBD5
:100D1C008D1E120C33AF1E7E00EF64017004D2A442
:0B0D2C00C2A5EF4E7004C2A4D2A522A5
:100D37008D1E120C62AF1E7E00EF64017004D2A2FA
:0B0D4700C2A3EF4E7004C2A2D2A32290
:090DE000C2A4C2A5C2A2C2A32252
:100C9100C2A4C2A5C2A2C2A37F147E00120D01305C
:100CA100B20320B310E4FD7F28120D1CE4FD7F2860
:0E0CB100120D3780EAC2A4C2A5C2A2C2A322BD
:100C330043BA8090FF40E4F0A3F0FCFDFE7BE47A2E
:100C430004F9F8120819E47B64FAF9F8120B81909D
:0F0C5300FF42EEF0A3EFF0A37408F053BA7F2234
:100C620043BA8090FF50E4F0A3F0FCFDFE7BE47AEF
:100C720004F9F8120819E47B64FAF9F8120B81906E
:0F0C8200FF52EEF0A3EFF0A37408F053BA7F22F5
:100CE40043BA80E4F5F190FFF2740CF090FFF074D5
:0D0CF40004F0A374E4F075F5B053BA7F224C
:0E0DA700538E7F758C07758A9AC28DD28C226E
:100D5200759850438E40538EDF538EFEE4F58975AD
:080D62008BB8758DFFD28E22C3
:080DFA002000FDD2008F9922B8
:090DE9002000FDD20085991C22B6
:100CBF008B218A228923AB21AA22A9231208006043
:100CCF00130523E5237002052214F9120800FF1201
:050CDF000DFA80E22285
:03000000020AA74A
:0C0AA700787FE4F6D8FD758123020AEE8A
:10080000BB010689828A83E0225002E722BBFE02F6
:09081000E32289828A83E4932229
:10081900E88FF0A4CC8BF0A42CFCE98EF0A42CFC7E
:100829008AF0EDA42CFCEA8EF0A4CDA8F08BF0A4FC
:100839002DCC3825F0FDE98FF0A42CCD35F0FCEB5B
:100849008EF0A4FEA9F0EB8FF0A4CFC5F02ECD3920
:0F085900FEE43CFCEAA42DCE35F0FDE43CFC228D
:100B8100C2D5E830E70FB2D5E4C39BFBE49AFAE49F
:100B910099F9E498F8EC30E717B2D5120BB71208BF
:100BA100CAE4C39BFBE49AFAE499F9E498F8800358
:100BB1001208CA30D50DE4C39FFFE49EFEE49DFDFB
:040BC100E49CFC2292
:10086800D083D082F8E4937012740193700DA3A31F
:1008780093F8740193F5828883E473740293686033
:06088800EFA3A3A380DF33
:100AB300020D80E493A3F8E493A34003F68001F2CC
:100AC30008DFF48029E493A3F85407240CC8C33344
:100AD300C4540F4420C8834004F456800146F6DF13
:100AE300E4800B0102040810204080900E02E47E93
:100AF300019360BCA3FF543F30E509541FFEE49308
:100B0300A360010ECF54C025E060A840B8E493A3CE
:100B1300FAE493A3F8E493A3C8C582C8CAC583CAF9
:100B2300F0A3C8C582C8CAC583CADFE9DEE780BEB1
:010E080000E9
:10088E0075F008758200EF2FFFEE33FECD33CDCC21
:10089E0033CCC58233C5829BED9AEC99E5829840A4
:1008AE000CF582EE9BFEED9AFDEC99FC0FD5F0D681
:1008BE00E4CEFBE4CDFAE4CCF9A88222B800C1B9AB
:1008CE000059BA002DEC8BF084CFCECDFCE5F0CBE9
:1008DE00F97818EF2FFFEE33FEED33FDEC33FCEB22
:1008EE0033FB10D703994004EB99FB0FD8E5E4F9DD
:1008FE00FA227818EF2FFFEE33FEED33FDEC33FCCA
:10090E00C933C910D7059BE99A4007EC9BFCE99ABD
:10091E00F90FD8E0E4C9FAE4CCFB2275F010EF2F02
:10092E00FFEE33FEED33FDCC33CCC833C810D70702
:10093E009BEC9AE899400AED9BFDEC9AFCE899F83D
:0E094E000FD5F0DAE4CDFBE4CCFAE4C8F922D0
:00000001FF
