:1007F900759DFF75BD00E51A4488F5BC7F027E0032
:040809001207192297
:0E0830008F45AF4574122FF8E6FF12084C22D8
:1006EB00E51A4488F5BC00000000E5BC30E4FB5380
:1006FB00BCEFAF1A74122FF8A6BD051AAF1AEFD3C1
:0E070B0094074003751A00E51A4488F5BC22D5
:1004EF00752100751B00752100E521C3940850404C
:1004FF00AF21EF90088793FFAE2174122EF8E6FE1E
:10050F00EEC39F4013AF217401A807088002C333C5
:10051F00D8FCFFEF421B8014AF217401A80708809D
:10052F0002C333D8FCFFEFF4FFEF521B052180B954
:01053F002299
:10082000FDFEFF0000010203FDFEFF0000010203C8
:10079000053D0000000000013C11013B04013A0549
:10027200752B00752C00752D00752E00752F0075DD
:100282003000753100753200753200E532C39405D5
:10029200501BAF32743D2FF8E6FFEF3395E0FEEFCF
:1002A200252EF52EEE352DF52D053280DEAE2DAF45
:1002B2002EAD3BED3395E0FC12011D8E2D8F2EAF3E
:1002C2003CEFFD3395E0FCAF3DEF3395E0FE1201CC
:1002D2001D8E2B8F2CAF3FEF3395E0FEAD3DED33FE
:1002E20095E0FCC3ED9FF530EC9EF52FAF2EAE2CC2
:1002F200EE2FFFAE30EF2EF531D3E531648094E47A
:100302004003753164C3E5316480941C5003753138
:100312009CD3E531648094804028D3E53164809495
:10032200B2400F7F641205C4E531F404FF12058464
:10033200804C7F641205C4C374649531FF12058436
:10034200803CC3E531648094805029C3E5316480E8
:10035200944E500CAF311205C47F64120584801E86
:10036200E531F404FFC374649FFF1205C47F641275
:100372000584800A7F641205847F641205C4AF314C
:010382002258
:020483008F2BBD
:100485007BFF7A087920C003C002C0017B007A0097
:10049500792CA801AC02AD03D001D002D0037E00B7
:1004A5007F081200DE753400753500753500E535B9
:1004B500C394085032AF3574017E00A80708800543
:1004C500C333CE33CED8F9FFAD2B7C00EE5CFEEF07
:1004D5005DFFEF4E600DAF35742C2FF8E6FFEF256D
:0904E50034F534053580C7AF344D
:0104EE0022EB
:10040F007BFF7A087928C003C002C0017B007A0005
:10041F007921A801AC02AD03D001D002D0037E0038
:10042F007F081200DE752900752A00AF1B120483A6
:10043F008F29752A04E52AD394004014AF2A743CFF
:10044F002FF8E6FFAE2A743D2EF8A607152A80E591
:10045F0085293DE51B700512080D8014E51BB4FFBF
:10046F000C7F641205847F641205C480031202722C
:03047F001207ADB4
:010482002257
:08088700E0E0E0E0E0E0E0E069
:0607A000011A000109002E
:1007710075940075930075920075910075960075DA
:0F078100950075B20075B10075B40075B3002214
:040719008E368F3752
:10071D00E5371537AE3670021536FFEF4E60197599
:10072D003813753988E5391539AE3870021538FF2B
:08073D00EF4E60DC80EF80D874
:010745002291
:09087500D2A9D2A8C288D2AF2298
:03000B00020604E6
:10060400C0E0C0F0C083C082C0D075D000C28CE509
:1006140009B401167509007FE87E03120719120751
:10062400AD7F147E0012071980061204EF12040F26
:0D063400D28CD0D0D082D083D0F0D0E03274
:0300030002085799
:0A08570030B20630B3037509013218
:1007E4001207711207CA12087512083E1207F9128D
:0507F40006EB80FB2272
:020584008F33B3
:10058600C3E53364809480501AC2A4D2A5C3E53370
:100596006480941C5005753464801DE533F404F5BD
:1005A600348015D3E533648094E440057534648063
:0D05B60003853334D2A4C2A5AF3412064130
:0105C3002215
:0205C4008F3373
:1005C600C3E53364809480501AC2A2D2A3C3E53334
:1005D6006480941C5005753464801DE533F404F57D
:1005E600348015D3E533648094E440057534648023
:0D05F60003853334D2A2C2A3AF3412067CB9
:0106030022D4
:10080D007F0012067C7F00120641C2A4C2A5C2A2BF
:03081D00C2A32251
:0607A600011F00011E000E
:0A08610012080D751E04751F012218
:0A086B00E51F70037F01227F0022C9
:1006B700E51F12017E06C60106DE02000006EAE516
:1006C7001ED394004003151E227FD81205847FD8BD
:1006D7001205C4751F022230B20320B30612080D9B
:0406E700751F002259
:100641008F3543BA8090FF40E4F0A3E4F0AF35E486
:10065100FCFDFE7BE47A047900780012012F7B64B3
:100661007A007900780012054090FF42EEF0A3EF86
:0B067100F090FF447408F053BA7F22A1
:10067C008F3543BA8090FF50E4F0A3E4F0AF35E43B
:10068C00FCFDFE7BE47A047900780012012F7B6478
:10069C007A007900780012054090FF52EEF0A3EF3B
:0B06AC00F090FF547408F053BA7F2256
:1007AD0043BA8075F10090FFF2740CF090FFF07475
:0D07BD0004F0A374E4F075F5B053BA7F2288
:0E083E00538E7F758C07758A9AC28DD28C22DC
:1007CA00759850438E40538EDF538EFE758900759F
:0A07DA008BB8758DFFD28ED29922E4
:0B084C008F462000FDD2008546992257
:09087E002000FDD20085991C2226
:100746008B428A438944AB42AA43A944120104FF5F
:10075600EF6017AB420544E544AA43700205431413
:0B076600F9120104FF12084C80DC2295
:0300000002038375
:0C038300787FE4F6D8FD7581460203CABD
:10000E00E709F608DFFA8046E709F208DFFA803ED4
:10001E0088828C83E709F0A3DFFA8032E309F608C1
:10002E00DFFA8078E309F208DFFA807088828C8329
:10003E00E309F0A3DFFA806489828A83E0A3F608DD
:10004E00DFFA805889828A83E0A3F208DFFA804CB7
:10005E0080D280FA80C680D4806980F2803380108E
:10006E0080A680EA809A80A880DA80E280CA8033F7
:10007E0089828A83ECFAE493A3C8C582C8CCC5836F
:10008E00CCF0A3C8C582C8CCC583CCDFE9DEE7803F
:10009E000D89828A83E493A3F608DFF9ECFAA9F0BE
:1000AE00EDFB2289828A83ECFAE0A3C8C582C8CC14
:1000BE00C583CCF0A3C8C582C8CCC583CCDFEADE2D
:1000CE00E880DB89828A83E493A3F208DFF980CC8F
:1000DE0088F0EF60010E4E60C388F0ED2402B40488
:1000EE000050B9F582EB2402B4040050AF2323452F
:0600FE00822390005E73F6
:10010400BB010689828A83E0225002E722BBFE02F9
:09011400E32289828A83E493222C
:10011D00EF8DF0A4A8F0CF8CF0A428CE8DF0A42EF6
:02012D00FE22B0
:10012F00E88FF0A4CC8BF0A42CFCE98EF0A42CFC6F
:10013F008AF0EDA42CFCEA8EF0A4CDA8F08BF0A4ED
:10014F002DCC3825F0FDE98FF0A42CCD35F0FCEB4C
:10015F008EF0A4FEA9F0EB8FF0A4CFC5F02ECD3911
:0F016F00FEE43CFCEAA42DCE35F0FDE43CFC227E
:10054000C2D5E830E70FB2D5E4C39BFBE49AFAE4E6
:1005500099F9E498F8EC30E717B2D5120576120154
:10056000E0E4C39BFBE49AFAE499F9E498F8800389
:100570001201E030D50DE4C39FFFE49EFEE49DFD33
:04058000E49CFC22D9
:10017E00D083D082F8E4937012740193700DA3A310
:10018E0093F8740193F5828883E473740293686024
:06019E00EFA3A3A380DF24
:10038F000207E4E493A3F8E493A34003F68001F299
:10039F0008DFF48029E493A3F85407240CC8C3336F
:1003AF00C4540F4420C8834004F456800146F6DF3E
:1003BF00E4800B0102040810204080900790E47E37
:1003CF00019360BCA3FF543F30E509541FFEE49333
:1003DF00A360010ECF54C025E060A840B8E493A3FA
:1003EF00FAE493A3F8E493A3C8C582C8CAC583CA25
:1003FF00F0A3C8C582C8CAC583CADFE9DEE780BEDD
:0107AC00004C
:1001A40075F008758200EF2FFFEE33FECD33CDCC12
:1001B40033CCC58233C5829BED9AEC99E582984095
:1001C4000CF582EE9BFEED9AFDEC99FC0FD5F0D672
:1001D400E4CEFBE4CDFAE4CCF9A88222B800C1B99C
:1001E4000059BA002DEC8BF084CFCECDFCE5F0CBDA
:1001F400F97818EF2FFFEE33FEED33FDEC33FCEB13
:1002040033FB10D703994004EB99FB0FD8E5E4F9CD
:10021400FA227818EF2FFFEE33FEED33FDEC33FCBA
:10022400C933C910D7059BE99A4007EC9BFCE99AAE
:10023400F90FD8E0E4C9FAE4CCFB2275F010EF2FF3
:10024400FFEE33FEED33FDCC33CCC833C810D707F3
:100254009BEC9AE899400AED9BFDEC9AFCE899F82E
:0E0264000FD5F0DAE4CDFBE4CCFAE4C8F922C1
:00000001FF
