:100F0100759DFF75BD00E5194488F5BC7F027E0023
:040F1100120DC022DB
:0E0F39008F4FAF4F74112FF8E6FF120F7E227C
:100D9200E5194488F5BC00000000E5BC30E4FB53D3
:100DA200BCEFAF1974112FF8A6BD0519AF19EFD317
:0E0DB20094074003751900E5194488F5BC222A
:100ED4008F50E55044C8F5BC00000000E5BC30E488
:070EE400FB53BCEFAFBD2280
:100B8500755100751A00755100E551C39408504020
:100B9500AF51EF90000393FFAE5174112EF8E6FEAE
:100BA500EEC39F4013AF517401A807088002C333F9
:100BB500D8FCFFEF421A8014AF517401A8070880D2
:100BC50002C333D8FCFFEFF4FFEF521A055180B989
:010BD50022FD
:090E3F00011D00011E00011F004D
:0E0F4700751F017F0A120C627F0A120CA22293
:040FC800751D012270
:040FCC00751E01226B
:040FD000751E002268
:040FD400751D002265
:0A0F9F00751F00120F15120E8322B9
:100D5800754500754600754600E546C3940850275A
:100D6800AF4674017E00A807088005C333CE33CE92
:100D7800D8F9FFAD1A7C00EE5CFEEF5DFFEF4E6028
:090D8800020545054680D2AF4585
:010D9100223F
:10036A00E51F6401600302065A120FE8E51A120833
:10037A00A103DF0005720406200705360805540AA2
:10038A0004A00E06040F04DC1204FA1804641C0408
:10039A002C1E059020051830048238040E3C04BE39
:1003AA0070044A7805E8C0063CC305CCE005AEF007
:1003BA0003C1FF00000656E51D600D7F19120C628D
:1003CA007F19120CA20206567F32120C627F321279
:1003DA000CA2020656E51E600D7F00120C627F0019
:1003EA00120CA2020656E51D600D7F19120C627FDF
:1003FA0019120CA20206567F32120C627F32120CBC
:10040A00A2020656E51D600D7F32120C627F32127F
:10041A000CA20206567F64120C627F64120CA202BE
:10042A000656E51D600D7F32120C627F19120CA26E
:10043A000206567F64120C627F32120CA202065622
:10044A00E51D600C7F19120C627F32120CA2800A21
:10045A007F32120C627F64120CA2E51D600D7F329E
:10046A00120C627F28120CA20206567F64120C62DA
:10047A007F50120CA2020656E51D600D7F28120C51
:10048A00627F32120CA20206567F50120C627F64FF
:10049A00120CA2020656E51D600D7F32120C627F15
:1004AA0014120CA20206567F64120C627F28120CE8
:1004BA00A2020656E51D600D7F14120C627F3212ED
:1004CA000CA20206567F28120C627F64120CA2024A
:1004DA000656E51D600D7F32120C627F32120CA2A5
:1004EA000206567F64120C627F64120CA202065640
:1004FA00E51D600D7F32120C627F1E120CA20206ED
:10050A00567F64120C627F3C120CA2020656E51D4D
:10051A00600D7F1E120C627F32120CA20206567FF9
:10052A003C120C627F64120CA2020656E51D600D95
:10053A007F32120C627F28120CA20206567F6412C6
:10054A000C627F50120CA2020656E51D600D7F2830
:10055A00120C627F32120CA20206567F50120C62F3
:10056A007F64120CA2020656E51D600D7F32120C42
:10057A00627F1E120CA20206567F64120C627F3C36
:10058A00120CA2020656E51D600D7F1E120C627F38
:10059A0032120CA20206567F3C120C627F64120CC5
:1005AA00A2020656E51D600D7FE7120C627F321229
:1005BA000CA20206567FCE120C627F64120CA202B3
:1005CA000656E51D600C7FDB120C627F32120CA20C
:1005DA00807A7FB5120C627F64120CA2806EE51DD0
:1005EA00600C7FCE120C627F32120CA2805E7F9C5E
:1005FA00120C627F64120CA28052E51D600C7F32DD
:10060A00120C627FE7120CA280427F64120C627F96
:10061A00CE120CA28036E51D600C7F32120C627F6E
:10062A00DB120CA280267F64120C627FB5120CA228
:10063A00801AE51D600C7F32120C627FCE120CA26A
:10064A00800A7F64120C627F9C120CA2120E832213
:04065A00120FEB226E
:08000300E0E0E0E0E0E0E0E0F5
:030E48000119008D
:100E640075940075930075920075910075960075E0
:0F0E7400950075B20075B10075B40075B300221A
:040DC0008E3B8F3C9B
:100DC400E53C153CAE3B7002153BFFEF4E601975D8
:100DD4003D13753E88E53E153EAE3D7002153DFF60
:080DE400EF4E60DC80EF80D8C7
:010DEC0022E4
:040FD80025640A0082
:050FC300D2A9D2AF220B
:03000B00020A7076
:0D0A7000C0E0C0F0C083C082C0D075D000CF
:100A7D00755200755200E552C394085011AF5212D1
:100A8D000ED4AE5274112EF8A607055280E8120B43
:100A9D0085AF1A120AD97BFF7A0F79D8AF1A7E006B
:100AAD008E258F2612007012065E120BD6120FA91C
:100ABD00EF6008120FE512036A8003120FE2120EA7
:010ACD00EB3D
:0B0ACE00D0D0D082D083D0F0D0E03236
:100EA000120E64120FBC120EBA120FC37F14120F6F
:0A0EB00063120F55120F0180FE229D
:020C62008F47BA
:100C6400C3E54764809480501AC2A4D2A5C3E54763
:100C74006480941C5005754864801DE547F404F5B0
:100C8400488015D3E547648094E440057548648042
:0D0C940003854748D2A4C2A5AF48120CE268
:010CA1002230
:020CA2008F4978
:100CA400C3E54964809480501AC2A2D2A3C3E54923
:100CB4006480941C5005754A64801DE549F404F56C
:100CC4004A8015D3E549648094E44005754A6480FC
:0D0CD4000385494AD2A2C2A3AF4A120D1DEA
:010CE10022F0
:100F15007F00120D1D7F00120CE2C2A4C2A5C2A261
:030F2500C2A32242
:070E4B00014100023F00001D
:0D0F7100120F15753F0075400A75410122F1
:0A0FA900E54170037F01227F002262
:100BD600E5411208A10BE5010C110200000C1DD322
:100BE600E5409400E53F94004009E5401540700259
:100BF600153F2230B20320B30E7FD8120C627FD885
:100C0600120CA2754102227541002230B20930B39E
:080C160006120F1575410022C2
:100CE2008F5343BA8090FF40E4F0A3E4F0AF53E4A3
:100CF200FCFDFE7BE47A04790078001208527B64E2
:100D02007A0079007800120C1E90FF42EEF0A3EFF9
:0B0D1200F090FF447408F053BA7F22F9
:100D1D008F5443BA8090FF50E4F0A3E4F0AF54E455
:100D2D00FCFDFE7BE47A04790078001208527B64A6
:100D3D007A0079007800120C1E90FF52EEF0A3EFAE
:0B0D4D00F090FF547408F053BA7F22AE
:100E830043BA8075F10090FFF2740CF090FFF07498
:0D0E930004F0A374E4F075F5B053BA7F22AB
:0E0F5500538E7F758C07758A9AC28DD28C22BE
:100EBA00759850438E40538EDF538EFE75890075A8
:0A0ECA008BB8758DFFD28ED29922ED
:0B0F7E008F552009FDD20985559922EE
:090FB3002009FDD20985991B22D9
:100DED008B428A438944AB42AA43A944120839FF76
:100DFD00EF6017AB420544E544AA43700205431466
:0B0E0D00F9120839FF120F7E80DC2272
:040E5200024B00004F
:070FBC00439301439401225D
:030FDC00C28022AE
:030FDF00D280229B
:0E0F63008F56AF567E008E4B8F4C120FDC2245
:100EEB00E54C454B600C120FDCE54C154C700215B4
:060EFB004B22120FDF2262
:100B3300D5BDF8C8EBC9CFC1CFC7F80A00D4DAC90D
:100B4300CFC1CFC7F831B3B5CEBB0A00CDF9C9CFFA
:100B5300C1CFC7F832B3B5CEBB0A00B4A6D3DAC946
:100B6300CFC1CFC7F832B3B5CEBB0A00CDCBB3F6F6
:100B7300C9CFC1CFC7F80A00BDF8D5CFB0ADC7F80C
:020B83000A0066
:0D0E5600013A0002380000013700013600AB
:0B0F89008E4D8F4E854D38854E39226D
:100F2800D3E5399400E538940040037F01227F001F
:010F38002296
:10065E00D3E5399400E53894004008E53915397032
:10066E00021538E53A1208A106950006BE01070BE1
:10067E000207240307660407A40507B40607F50757
:10068E0008380800000838120D58EFC39408401CB3
:10069E00120F477F14120F637FC87E00120F897BE3
:1006AE00FF7A0B7933120070753A0122120F9F22D6
:1006BE00120F28EF7043E5377017120D58EFC394E1
:1006CE0005400E7537017F14120F63120FD0753669
:1006DE0000E536600302083820B20302083820B362
:1006EE0003020838753601120FC87F14120F6312F9
:1006FE000F9F120F71753A022275370022120FA941
:10070E00EF70030208387BFF7A0B79401200707588
:10071E003A0375370022E537700F7FC87E00120F3F
:10072E00897F14120F63753701120F28EF600302D1
:10073E000838120F4730B20302083830B3030208EC
:10074E00387F0F7E00120F897BFF7A0B794F1200D4
:10075E0070753A0475370022120F28EF7031E537A5
:10076E00600302083820B20302083820B3030208DF
:10077E00387537017F14120F63120F9F120F717BA2
:10078E00FF7A0B795E120070753A05753700227587
:10079E00370075360022120FA9EF70030208387564
:1007AE003A0675370022E537700F7FC87E00120FAC
:1007BE00897F14120F63753701120F28EF706B12B9
:1007CE000F47120FD420B26220B35F7F14120F6353
:1007DE007F147E00120F897BFF7A0B796F120070E7
:1007EE00753A0775370022120F28EF7037E537700C
:1007FE000C120D58EFC394064003753701E53764AC
:10080E00017027120D58EFD39405501E7BFF7A0B03
:10081E00797B120070753A087537007F14120F63DA
:0B082E00120F9F227537007536002264
:0B0F9400C2C2C2C0C2CAC2C9C2C82289
:030FE200D2C22256
:030FE500C2C22263
:030FE800D2C02252
:030FEB00C2C0225F
:100AD9008F57E55730E004D2A18002C2A1E5573013
:100AE900E104D2B48002C2B4E55730E204D2B58041
:100AF90002C2B5E55730E304D2B68002C2B6E55763
:100B090030E404D2B78002C2B7E55730E504D2CD4C
:100B19008002C2CDE55730E604D2CC8002C2CCE5D2
:0A0B29005730E703D2CB22C2CB22E3
:030000000209E40E
:0C09E400787FE4F6D8FD758157020A2BDD
:10083900BB010689828A83E0225002E722BBFE02BD
:09084900E32289828A83E49322F0
:10085200E88FF0A4CC8BF0A42CFCE98EF0A42CFC45
:100862008AF0EDA42CFCEA8EF0A4CDA8F08BF0A4C3
:100872002DCC3825F0FDE98FF0A42CCD35F0FCEB22
:100882008EF0A4FEA9F0EB8FF0A4CFC5F02ECD39E7
:0F089200FEE43CFCEAA42DCE35F0FDE43CFC2254
:100C1E00C2D5E830E70FB2D5E4C39BFBE49AFAE401
:100C2E0099F9E498F8EC30E717B2D5120C54120982
:100C3E0042E4C39BFBE49AFAE499F9E498F8800342
:100C4E0012094230D50DE4C39FFFE49EFEE49DFDE4
:040C5E00E49CFC22F4
:1008A100D083D082F8E4937012740193700DA3A3E6
:1008B10093F8740193F5828883E4737402936860FA
:0608C100EFA3A3A380DFFA
:10000E00E5312425F8E605312278223007027825DD
:10001E00E475F0011209D40208392000EB7F2ED2CC
:10002E00008018EF540F2490D43440D4FF30040BCA
:10003E00EF24BFB41A0050032461FFE532600215AD
:10004E00320535E5357002053430070D7822E4753A
:10005E00F0011209D4EF0208F4020E187403D2074D
:10006E008003E4C207F5318B228A238924E4F5321A
:10007E00F534F535E53260077F2012004980F575BD
:10008E0033FFC201C200C202C203C205C206C208C9
:10009E00120017FF700D3007057F0012005AAF35A2
:1000AE00AE3422B4255FC2D5C204120017FF24D08D
:1000BE00B40A00501A75F00A783230D50508B6FF2A
:1000CE000106C6A426F620D5047002D20380D924D8
:1000DE00CFB41A00EF5004C2E5D20402025AD20184
:1000EE0080C6D20080C0D20280BCD2D580BAD205E2
:1000FE0080B47F201200492002077401B5320040FF
:10010E00F112000EFF120049020082D208D20680C0
:10011E009512000EFB12000EFA12000EF94A4B70E9
:10012E0006792B7A037BFF20022EE532602A7E00B1
:10013E008E827583001208C760060EEE653370F06E
:10014E00C2D5EBC0E0EAC0E0E9C0E0EE1202A1D0F9
:10015E00E0F9D0E0FAD0E0FB120839FF60AAEBC05C
:10016E00E0EAC0E0E9C0E0120049D0E02401F9D095
:10017E00E03400FAD0E0FBE5330460DCD533D980FF
:10018E00877BFF7A02799DD202809C79108002795A
:10019E0008C206C2088008D2D5790A8004790AC23C
:1001AE00D5E533047002F533E4FAFDFEFF12000EBE
:1001BE00FC7B0820011312000EFD7B1030000A128A
:1001CE00000EFE12000EFF7B20EC3382D592D5502E
:1001DE0013C3E43000069FFFE49EFEE42001039D5E
:1001EE00FDE49CFCE4CBF8C201EC700CCFCECDCC80
:1001FE00E824F8F870F38017C3EF33FFEE33FEED0B
:10020E0033FDEC33FCEB33FB994002FB0FD8E9EBEB
:10021E00300105F8D0E0C448B201C0E00AEC4D4E02
:10022E004F78207B0070C2EAB5330040BCC0E012AC
:10023E0002A3D0F0D0E0200104C4C0E0C4B201C0DB
:10024E00F0120032D0F0D5F0EB0200821208A101BC
:10025E001F5301995800F04C00EC42019D4F01A52F
:0F026E004401A54901054301AB55018F46018F9E
:10027D0045018F47034B5000F42D00F82E011B2B29
:10028D0000FC2301192003342A00B4480000011397
:10029D003F3F3F00790AA2D5200314300509B9105C
:1002AD00020404B9080104A2D5200602500104205D
:1002BD0002689202B532005034C0E07F203003193D
:1002CD007F30A20272067205500F1202FAC202C2EC
:1002DD0006C205C2087F30800F300503E9C0E01269
:1002ED000049300503D0E0F9D0E0B532CC30051728
:1002FD007F30B9100C1200497F583004077F788089
:10030D0003B908031200493002057F2D0200497F11
:10031D00202008F87F2B2006F322920280CF286E32
:10032D00756C6C2900D20112000E3001F8C20178F3
:10033D003230D50108F60200B42D50434958120051
:10034D000E2403B405004001E49003469312003AD5
:0D035D00743A12003AD2037532040201997D
:1009F000020EA0E493A3F8E493A34003F68001F26F
:100A000008DFF48029E493A3F85407240CC8C33307
:100A1000C4540F4420C8834004F456800146F6DFD6
:100A2000E4800B0102040810204080900E3FE47E19
:100A3000019360BCA3FF543F30E509541FFEE493CB
:100A4000A360010ECF54C025E060A840B8E493A392
:100A5000FAE493A3F8E493A3C8C582C8CAC583CABD
:100A6000F0A3C8C582C8CAC583CADFE9DEE780BE75
:010E6300008E
:1008C700BB010CE58229F582E5833AF583E02250E6
:1008D70006E92582F8E622BBFE06E92582F8E22230
:0D08E700E58229F582E5833AF583E493224A
:1008F400BB010689828A83F0225002F722BBFE01E3
:02090400F322DC
:1009060075F008758200EF2FFFEE33FECD33CDCCA8
:1009160033CCC58233C5829BED9AEC99E58298402B
:100926000CF582EE9BFEED9AFDEC99FC0FD5F0D608
:10093600E4CEFBE4CDFAE4CCF9A88222B800C1B932
:100946000059BA002DEC8BF084CFCECDFCE5F0CB70
:10095600F97818EF2FFFEE33FEED33FDEC33FCEBA9
:1009660033FB10D703994004EB99FB0FD8E5E4F964
:10097600FA227818EF2FFFEE33FEED33FDEC33FC51
:10098600C933C910D7059BE99A4007EC9BFCE99A45
:10099600F90FD8E0E4C9FAE4CCFB2275F010EF2F8A
:1009A600FFEE33FEED33FDCC33CCC833C810D7078A
:1009B6009BEC9AE899400AED9BFDEC9AFCE899F8C5
:0E09C6000FD5F0DAE4CDFBE4CCFAE4C8F92258
:1009D400FAE6FB0808E6F925F0F618E6CA3AF62224
:100E1800EFB40A07740D120E23740A309811A899BA
:100E2800B8130CC2983098FDA899C298B811F6303A
:070E380099FDC299F5992212
:00000001FF
